:0400000080311A2809
:100008007E14803100308600003087004E018C1E3F
:100018000E280F2818280130F0070030F13D740829
:100028004B019C004E018C127E10090080311C2867
:10003800803175208031F400F001F1017E1040011B
:1000480080312628400116101C104B011F081F394B
:1000580040389F001F121F08F03908389F007408A5
:100068009C004E018C1296168B170B174B019E178E
:10007800803165208031F430F2000130F3007108DE
:100088007302031D49287008720203184C284D2872
:100098004328031040011C1C031403185428572834
:1000A80040011C14592840011C1042019E1C5D2867
:1000B8005E28592832309A00F001F1014328803136
:1000C8001A2842011E119F159C01CF309B001E1259
:1000D8009D179E16400114117E014E110F30A2008B
:0400E8000800E034F8
:020000040001F9
:0A000E009F3FFF3F9F3FFF3FFF3F72
:00000001FF
